{
  "contractName": "Election",
  "abi": [
    {
      "inputs": [
        {
          "internalType": "bytes32",
          "name": "_root",
          "type": "bytes32"
        }
      ],
      "stateMutability": "nonpayable",
      "type": "constructor"
    },
    {
      "anonymous": false,
      "inputs": [
        {
          "indexed": true,
          "internalType": "address",
          "name": "owner",
          "type": "address"
        },
        {
          "indexed": true,
          "internalType": "address",
          "name": "approved",
          "type": "address"
        },
        {
          "indexed": true,
          "internalType": "uint256",
          "name": "tokenId",
          "type": "uint256"
        }
      ],
      "name": "Approval",
      "type": "event"
    },
    {
      "anonymous": false,
      "inputs": [
        {
          "indexed": true,
          "internalType": "address",
          "name": "owner",
          "type": "address"
        },
        {
          "indexed": true,
          "internalType": "address",
          "name": "operator",
          "type": "address"
        },
        {
          "indexed": false,
          "internalType": "bool",
          "name": "approved",
          "type": "bool"
        }
      ],
      "name": "ApprovalForAll",
      "type": "event"
    },
    {
      "anonymous": false,
      "inputs": [
        {
          "indexed": true,
          "internalType": "address",
          "name": "previousOwner",
          "type": "address"
        },
        {
          "indexed": true,
          "internalType": "address",
          "name": "newOwner",
          "type": "address"
        }
      ],
      "name": "OwnershipTransferred",
      "type": "event"
    },
    {
      "anonymous": false,
      "inputs": [
        {
          "indexed": true,
          "internalType": "address",
          "name": "from",
          "type": "address"
        },
        {
          "indexed": true,
          "internalType": "address",
          "name": "to",
          "type": "address"
        },
        {
          "indexed": true,
          "internalType": "uint256",
          "name": "tokenId",
          "type": "uint256"
        }
      ],
      "name": "Transfer",
      "type": "event"
    },
    {
      "anonymous": false,
      "inputs": [
        {
          "indexed": true,
          "internalType": "uint256",
          "name": "_candidateId",
          "type": "uint256"
        }
      ],
      "name": "voteEvent",
      "type": "event"
    },
    {
      "inputs": [
        {
          "internalType": "address",
          "name": "to",
          "type": "address"
        },
        {
          "internalType": "uint256",
          "name": "tokenId",
          "type": "uint256"
        }
      ],
      "name": "approve",
      "outputs": [],
      "stateMutability": "nonpayable",
      "type": "function"
    },
    {
      "inputs": [
        {
          "internalType": "address",
          "name": "owner",
          "type": "address"
        }
      ],
      "name": "balanceOf",
      "outputs": [
        {
          "internalType": "uint256",
          "name": "",
          "type": "uint256"
        }
      ],
      "stateMutability": "view",
      "type": "function",
      "constant": true
    },
    {
      "inputs": [],
      "name": "candidateCount",
      "outputs": [
        {
          "internalType": "uint256",
          "name": "",
          "type": "uint256"
        }
      ],
      "stateMutability": "view",
      "type": "function",
      "constant": true
    },
    {
      "inputs": [
        {
          "internalType": "uint256",
          "name": "",
          "type": "uint256"
        }
      ],
      "name": "candidates",
      "outputs": [
        {
          "internalType": "uint256",
          "name": "candidateId",
          "type": "uint256"
        },
        {
          "internalType": "string",
          "name": "candidateName",
          "type": "string"
        },
        {
          "internalType": "uint256",
          "name": "candidateVotes",
          "type": "uint256"
        }
      ],
      "stateMutability": "view",
      "type": "function",
      "constant": true
    },
    {
      "inputs": [
        {
          "internalType": "uint256",
          "name": "tokenId",
          "type": "uint256"
        }
      ],
      "name": "getApproved",
      "outputs": [
        {
          "internalType": "address",
          "name": "",
          "type": "address"
        }
      ],
      "stateMutability": "view",
      "type": "function",
      "constant": true
    },
    {
      "inputs": [
        {
          "internalType": "address",
          "name": "owner",
          "type": "address"
        },
        {
          "internalType": "address",
          "name": "operator",
          "type": "address"
        }
      ],
      "name": "isApprovedForAll",
      "outputs": [
        {
          "internalType": "bool",
          "name": "",
          "type": "bool"
        }
      ],
      "stateMutability": "view",
      "type": "function",
      "constant": true
    },
    {
      "inputs": [],
      "name": "name",
      "outputs": [
        {
          "internalType": "string",
          "name": "",
          "type": "string"
        }
      ],
      "stateMutability": "view",
      "type": "function",
      "constant": true
    },
    {
      "inputs": [],
      "name": "owner",
      "outputs": [
        {
          "internalType": "address",
          "name": "",
          "type": "address"
        }
      ],
      "stateMutability": "view",
      "type": "function",
      "constant": true
    },
    {
      "inputs": [
        {
          "internalType": "uint256",
          "name": "tokenId",
          "type": "uint256"
        }
      ],
      "name": "ownerOf",
      "outputs": [
        {
          "internalType": "address",
          "name": "",
          "type": "address"
        }
      ],
      "stateMutability": "view",
      "type": "function",
      "constant": true
    },
    {
      "inputs": [],
      "name": "renounceOwnership",
      "outputs": [],
      "stateMutability": "nonpayable",
      "type": "function"
    },
    {
      "inputs": [],
      "name": "root",
      "outputs": [
        {
          "internalType": "bytes32",
          "name": "",
          "type": "bytes32"
        }
      ],
      "stateMutability": "view",
      "type": "function",
      "constant": true
    },
    {
      "inputs": [
        {
          "internalType": "address",
          "name": "from",
          "type": "address"
        },
        {
          "internalType": "address",
          "name": "to",
          "type": "address"
        },
        {
          "internalType": "uint256",
          "name": "tokenId",
          "type": "uint256"
        }
      ],
      "name": "safeTransferFrom",
      "outputs": [],
      "stateMutability": "nonpayable",
      "type": "function"
    },
    {
      "inputs": [
        {
          "internalType": "address",
          "name": "from",
          "type": "address"
        },
        {
          "internalType": "address",
          "name": "to",
          "type": "address"
        },
        {
          "internalType": "uint256",
          "name": "tokenId",
          "type": "uint256"
        },
        {
          "internalType": "bytes",
          "name": "data",
          "type": "bytes"
        }
      ],
      "name": "safeTransferFrom",
      "outputs": [],
      "stateMutability": "nonpayable",
      "type": "function"
    },
    {
      "inputs": [
        {
          "internalType": "address",
          "name": "operator",
          "type": "address"
        },
        {
          "internalType": "bool",
          "name": "approved",
          "type": "bool"
        }
      ],
      "name": "setApprovalForAll",
      "outputs": [],
      "stateMutability": "nonpayable",
      "type": "function"
    },
    {
      "inputs": [
        {
          "internalType": "bytes4",
          "name": "interfaceId",
          "type": "bytes4"
        }
      ],
      "name": "supportsInterface",
      "outputs": [
        {
          "internalType": "bool",
          "name": "",
          "type": "bool"
        }
      ],
      "stateMutability": "view",
      "type": "function",
      "constant": true
    },
    {
      "inputs": [],
      "name": "symbol",
      "outputs": [
        {
          "internalType": "string",
          "name": "",
          "type": "string"
        }
      ],
      "stateMutability": "view",
      "type": "function",
      "constant": true
    },
    {
      "inputs": [
        {
          "internalType": "uint256",
          "name": "tokenId",
          "type": "uint256"
        }
      ],
      "name": "tokenURI",
      "outputs": [
        {
          "internalType": "string",
          "name": "",
          "type": "string"
        }
      ],
      "stateMutability": "view",
      "type": "function",
      "constant": true
    },
    {
      "inputs": [
        {
          "internalType": "address",
          "name": "from",
          "type": "address"
        },
        {
          "internalType": "address",
          "name": "to",
          "type": "address"
        },
        {
          "internalType": "uint256",
          "name": "tokenId",
          "type": "uint256"
        }
      ],
      "name": "transferFrom",
      "outputs": [],
      "stateMutability": "nonpayable",
      "type": "function"
    },
    {
      "inputs": [
        {
          "internalType": "address",
          "name": "newOwner",
          "type": "address"
        }
      ],
      "name": "transferOwnership",
      "outputs": [],
      "stateMutability": "nonpayable",
      "type": "function"
    },
    {
      "inputs": [
        {
          "internalType": "address",
          "name": "",
          "type": "address"
        }
      ],
      "name": "voters",
      "outputs": [
        {
          "internalType": "bool",
          "name": "",
          "type": "bool"
        }
      ],
      "stateMutability": "view",
      "type": "function",
      "constant": true
    },
    {
      "inputs": [
        {
          "internalType": "uint256",
          "name": "_candidateId",
          "type": "uint256"
        },
        {
          "internalType": "bytes32[]",
          "name": "proof",
          "type": "bytes32[]"
        }
      ],
      "name": "makeVote",
      "outputs": [],
      "stateMutability": "nonpayable",
      "type": "function"
    },
    {
      "inputs": [
        {
          "internalType": "bytes32[]",
          "name": "proof",
          "type": "bytes32[]"
        },
        {
          "internalType": "bytes32",
          "name": "leaf",
          "type": "bytes32"
        }
      ],
      "name": "isValid",
      "outputs": [
        {
          "internalType": "bool",
          "name": "",
          "type": "bool"
        }
      ],
      "stateMutability": "view",
      "type": "function",
      "constant": true
    }
  ],
  "bytecode": "0x60806040523480156200001157600080fd5b50604051620031a0380380620031a0833981810160405281019062000037919062000438565b6040518060400160405280600781526020017f4d79546f6b656e000000000000000000000000000000000000000000000000008152506040518060400160405280600381526020017f4d544b00000000000000000000000000000000000000000000000000000000008152508160009080519060200190620000bb92919062000371565b508060019080519060200190620000d492919062000371565b505050620000f7620000eb6200021d60201b60201c565b6200022560201b60201c565b80600781905550620001446040518060400160405280600981526020017f4a6f6520426964656e0000000000000000000000000000000000000000000000815250620002eb60201b60201c565b6200018a6040518060400160405280600c81526020017f446f6e616c64205472756d700000000000000000000000000000000000000000815250620002eb60201b60201c565b620001d06040518060400160405280600d81526020017f4261727261636b204f62616d6100000000000000000000000000000000000000815250620002eb60201b60201c565b620002166040518060400160405280600b81526020017f47656f7267652042757368000000000000000000000000000000000000000000815250620002eb60201b60201c565b5062000574565b600033905090565b6000600660009054906101000a900473ffffffffffffffffffffffffffffffffffffffff16905081600660006101000a81548173ffffffffffffffffffffffffffffffffffffffff021916908373ffffffffffffffffffffffffffffffffffffffff1602179055508173ffffffffffffffffffffffffffffffffffffffff168173ffffffffffffffffffffffffffffffffffffffff167f8be0079c531659141344cd1fd0a4f28419497f9722a3daafe3b4186f6b6457e060405160405180910390a35050565b600a60008154809291906200030090620004ae565b91905055506040518060600160405280600a548152602001828152602001600081525060086000600a5481526020019081526020016000206000820151816000015560208201518160010190805190602001906200036092919062000371565b506040820151816002015590505050565b8280546200037f9062000478565b90600052602060002090601f016020900481019282620003a35760008555620003ef565b82601f10620003be57805160ff1916838001178555620003ef565b82800160010185558215620003ef579182015b82811115620003ee578251825591602001919060010190620003d1565b5b509050620003fe919062000402565b5090565b5b808211156200041d57600081600090555060010162000403565b5090565b60008151905062000432816200055a565b92915050565b6000602082840312156200044b57600080fd5b60006200045b8482850162000421565b91505092915050565b6000819050919050565b6000819050919050565b600060028204905060018216806200049157607f821691505b60208210811415620004a857620004a76200052b565b5b50919050565b6000620004bb826200046e565b91507fffffffffffffffffffffffffffffffffffffffffffffffffffffffffffffffff821415620004f157620004f0620004fc565b5b600182019050919050565b7f4e487b7100000000000000000000000000000000000000000000000000000000600052601160045260246000fd5b7f4e487b7100000000000000000000000000000000000000000000000000000000600052602260045260246000fd5b620005658162000464565b81146200057157600080fd5b50565b612c1c80620005846000396000f3fe608060405234801561001057600080fd5b50600436106101425760003560e01c80638da5cb5b116100b8578063b88d4fde1161007c578063b88d4fde14610377578063b8a20ed014610393578063c87b56dd146103c3578063e985e9c5146103f3578063ebf0c71714610423578063f2fde38b1461044157610142565b80638da5cb5b146102d157806395d89b41146102ef578063a22cb4651461030d578063a3ec138d14610329578063a9a981a31461035957610142565b806323b872dd1161010a57806323b872dd146101fd5780633477ee2e1461021957806342842e0e1461024b5780636352211e1461026757806370a0823114610297578063715018a6146102c757610142565b806301ffc9a71461014757806306fdde0314610177578063081812fc14610195578063095ea7b3146101c55780630e9338aa146101e1575b600080fd5b610161600480360381019061015c9190611fe6565b61045d565b60405161016e91906123a0565b60405180910390f35b61017f61053f565b60405161018c91906123d6565b60405180910390f35b6101af60048036038101906101aa9190612038565b6105d1565b6040516101bc9190612339565b60405180910390f35b6101df60048036038101906101da9190611f56565b610617565b005b6101fb60048036038101906101f69190612061565b61072f565b005b61021760048036038101906102129190611e50565b610856565b005b610233600480360381019061022e9190612038565b6108b6565b60405161024293929190612573565b60405180910390f35b61026560048036038101906102609190611e50565b610968565b005b610281600480360381019061027c9190612038565b610988565b60405161028e9190612339565b60405180910390f35b6102b160048036038101906102ac9190611deb565b610a0f565b6040516102be9190612558565b60405180910390f35b6102cf610ac7565b005b6102d9610adb565b6040516102e69190612339565b60405180910390f35b6102f7610b05565b60405161030491906123d6565b60405180910390f35b61032760048036038101906103229190611f1a565b610b97565b005b610343600480360381019061033e9190611deb565b610bad565b60405161035091906123a0565b60405180910390f35b610361610bcd565b60405161036e9190612558565b60405180910390f35b610391600480360381019061038c9190611e9f565b610bd3565b005b6103ad60048036038101906103a89190611f92565b610c35565b6040516103ba91906123a0565b60405180910390f35b6103dd60048036038101906103d89190612038565b610c4c565b6040516103ea91906123d6565b60405180910390f35b61040d60048036038101906104089190611e14565b610cb4565b60405161041a91906123a0565b60405180910390f35b61042b610d48565b60405161043891906123bb565b60405180910390f35b61045b60048036038101906104569190611deb565b610d4e565b005b60007f80ac58cd000000000000000000000000000000000000000000000000000000007bffffffffffffffffffffffffffffffffffffffffffffffffffffffff1916827bffffffffffffffffffffffffffffffffffffffffffffffffffffffff1916148061052857507f5b5e139f000000000000000000000000000000000000000000000000000000007bffffffffffffffffffffffffffffffffffffffffffffffffffffffff1916827bffffffffffffffffffffffffffffffffffffffffffffffffffffffff1916145b80610538575061053782610dd2565b5b9050919050565b60606000805461054e90612736565b80601f016020809104026020016040519081016040528092919081815260200182805461057a90612736565b80156105c75780601f1061059c576101008083540402835291602001916105c7565b820191906000526020600020905b8154815290600101906020018083116105aa57829003601f168201915b5050505050905090565b60006105dc82610e3c565b6004600083815260200190815260200160002060009054906101000a900473ffffffffffffffffffffffffffffffffffffffff169050919050565b600061062282610988565b90508073ffffffffffffffffffffffffffffffffffffffff168373ffffffffffffffffffffffffffffffffffffffff161415610693576040517f08c379a000000000000000000000000000000000000000000000000000000000815260040161068a90612518565b60405180910390fd5b8073ffffffffffffffffffffffffffffffffffffffff166106b2610e87565b73ffffffffffffffffffffffffffffffffffffffff1614806106e157506106e0816106db610e87565b610cb4565b5b610720576040517f08c379a000000000000000000000000000000000000000000000000000000000815260040161071790612538565b60405180910390fd5b61072a8383610e8f565b505050565b600960003373ffffffffffffffffffffffffffffffffffffffff1673ffffffffffffffffffffffffffffffffffffffff16815260200190815260200160002060009054906101000a900460ff161561078657600080fd5b6000821180156107985750600a548211155b6107a157600080fd5b6008600083815260200190815260200160002060020160008154809291906107c890612799565b91905055506001600960003373ffffffffffffffffffffffffffffffffffffffff1673ffffffffffffffffffffffffffffffffffffffff16815260200190815260200160002060006101000a81548160ff021916908315150217905550817fa247b679b8fc65eb95979774186f3f4068743d7c38c37ca4b1181dcb7ca2507d60405160405180910390a25050565b610867610861610e87565b82610f48565b6108a6576040517f08c379a000000000000000000000000000000000000000000000000000000000815260040161089d906123f8565b60405180910390fd5b6108b1838383610fdd565b505050565b60086020528060005260406000206000915090508060000154908060010180546108df90612736565b80601f016020809104026020016040519081016040528092919081815260200182805461090b90612736565b80156109585780601f1061092d57610100808354040283529160200191610958565b820191906000526020600020905b81548152906001019060200180831161093b57829003601f168201915b5050505050908060020154905083565b61098383838360405180602001604052806000815250610bd3565b505050565b600080610994836112d7565b9050600073ffffffffffffffffffffffffffffffffffffffff168173ffffffffffffffffffffffffffffffffffffffff161415610a06576040517f08c379a00000000000000000000000000000000000000000000000000000000081526004016109fd906124f8565b60405180910390fd5b80915050919050565b60008073ffffffffffffffffffffffffffffffffffffffff168273ffffffffffffffffffffffffffffffffffffffff161415610a80576040517f08c379a0000000000000000000000000000000000000000000000000000000008152600401610a77906124b8565b60405180910390fd5b600360008373ffffffffffffffffffffffffffffffffffffffff1673ffffffffffffffffffffffffffffffffffffffff168152602001908152602001600020549050919050565b610acf611314565b610ad96000611392565b565b6000600660009054906101000a900473ffffffffffffffffffffffffffffffffffffffff16905090565b606060018054610b1490612736565b80601f0160208091040260200160405190810160405280929190818152602001828054610b4090612736565b8015610b8d5780601f10610b6257610100808354040283529160200191610b8d565b820191906000526020600020905b815481529060010190602001808311610b7057829003601f168201915b5050505050905090565b610ba9610ba2610e87565b8383611458565b5050565b60096020528060005260406000206000915054906101000a900460ff1681565b600a5481565b610be4610bde610e87565b83610f48565b610c23576040517f08c379a0000000000000000000000000000000000000000000000000000000008152600401610c1a906123f8565b60405180910390fd5b610c2f848484846115c5565b50505050565b6000610c448360075484611621565b905092915050565b6060610c5782610e3c565b6000610c61611638565b90506000815111610c815760405180602001604052806000815250610cac565b80610c8b8461164f565b604051602001610c9c929190612315565b6040516020818303038152906040525b915050919050565b6000600560008473ffffffffffffffffffffffffffffffffffffffff1673ffffffffffffffffffffffffffffffffffffffff16815260200190815260200160002060008373ffffffffffffffffffffffffffffffffffffffff1673ffffffffffffffffffffffffffffffffffffffff16815260200190815260200160002060009054906101000a900460ff16905092915050565b60075481565b610d56611314565b600073ffffffffffffffffffffffffffffffffffffffff168173ffffffffffffffffffffffffffffffffffffffff161415610dc6576040517f08c379a0000000000000000000000000000000000000000000000000000000008152600401610dbd90612438565b60405180910390fd5b610dcf81611392565b50565b60007f01ffc9a7000000000000000000000000000000000000000000000000000000007bffffffffffffffffffffffffffffffffffffffffffffffffffffffff1916827bffffffffffffffffffffffffffffffffffffffffffffffffffffffff1916149050919050565b610e4581611773565b610e84576040517f08c379a0000000000000000000000000000000000000000000000000000000008152600401610e7b906124f8565b60405180910390fd5b50565b600033905090565b816004600083815260200190815260200160002060006101000a81548173ffffffffffffffffffffffffffffffffffffffff021916908373ffffffffffffffffffffffffffffffffffffffff160217905550808273ffffffffffffffffffffffffffffffffffffffff16610f0283610988565b73ffffffffffffffffffffffffffffffffffffffff167f8c5be1e5ebec7d5bd14f71427d1e84f3dd0314c0f7b2291e5b200ac8c7c3b92560405160405180910390a45050565b600080610f5483610988565b90508073ffffffffffffffffffffffffffffffffffffffff168473ffffffffffffffffffffffffffffffffffffffff161480610f965750610f958185610cb4565b5b80610fd457508373ffffffffffffffffffffffffffffffffffffffff16610fbc846105d1565b73ffffffffffffffffffffffffffffffffffffffff16145b91505092915050565b8273ffffffffffffffffffffffffffffffffffffffff16610ffd82610988565b73ffffffffffffffffffffffffffffffffffffffff1614611053576040517f08c379a000000000000000000000000000000000000000000000000000000000815260040161104a90612458565b60405180910390fd5b600073ffffffffffffffffffffffffffffffffffffffff168273ffffffffffffffffffffffffffffffffffffffff1614156110c3576040517f08c379a00000000000000000000000000000000000000000000000000000000081526004016110ba90612478565b60405180910390fd5b6110d083838360016117b4565b8273ffffffffffffffffffffffffffffffffffffffff166110f082610988565b73ffffffffffffffffffffffffffffffffffffffff1614611146576040517f08c379a000000000000000000000000000000000000000000000000000000000815260040161113d90612458565b60405180910390fd5b6004600082815260200190815260200160002060006101000a81549073ffffffffffffffffffffffffffffffffffffffff02191690556001600360008573ffffffffffffffffffffffffffffffffffffffff1673ffffffffffffffffffffffffffffffffffffffff168152602001908152602001600020600082825403925050819055506001600360008473ffffffffffffffffffffffffffffffffffffffff1673ffffffffffffffffffffffffffffffffffffffff16815260200190815260200160002060008282540192505081905550816002600083815260200190815260200160002060006101000a81548173ffffffffffffffffffffffffffffffffffffffff021916908373ffffffffffffffffffffffffffffffffffffffff160217905550808273ffffffffffffffffffffffffffffffffffffffff168473ffffffffffffffffffffffffffffffffffffffff167fddf252ad1be2c89b69c2b068fc378daa952ba7f163c4a11628f55a4df523b3ef60405160405180910390a46112d283838360016117ba565b505050565b60006002600083815260200190815260200160002060009054906101000a900473ffffffffffffffffffffffffffffffffffffffff169050919050565b61131c610e87565b73ffffffffffffffffffffffffffffffffffffffff1661133a610adb565b73ffffffffffffffffffffffffffffffffffffffff1614611390576040517f08c379a0000000000000000000000000000000000000000000000000000000008152600401611387906124d8565b60405180910390fd5b565b6000600660009054906101000a900473ffffffffffffffffffffffffffffffffffffffff16905081600660006101000a81548173ffffffffffffffffffffffffffffffffffffffff021916908373ffffffffffffffffffffffffffffffffffffffff1602179055508173ffffffffffffffffffffffffffffffffffffffff168173ffffffffffffffffffffffffffffffffffffffff167f8be0079c531659141344cd1fd0a4f28419497f9722a3daafe3b4186f6b6457e060405160405180910390a35050565b8173ffffffffffffffffffffffffffffffffffffffff168373ffffffffffffffffffffffffffffffffffffffff1614156114c7576040517f08c379a00000000000000000000000000000000000000000000000000000000081526004016114be90612498565b60405180910390fd5b80600560008573ffffffffffffffffffffffffffffffffffffffff1673ffffffffffffffffffffffffffffffffffffffff16815260200190815260200160002060008473ffffffffffffffffffffffffffffffffffffffff1673ffffffffffffffffffffffffffffffffffffffff16815260200190815260200160002060006101000a81548160ff0219169083151502179055508173ffffffffffffffffffffffffffffffffffffffff168373ffffffffffffffffffffffffffffffffffffffff167f17307eab39ab6107e8899845ad3d59bd9653f200f220920489ca2b5937696c31836040516115b891906123a0565b60405180910390a3505050565b6115d0848484610fdd565b6115dc848484846117c0565b61161b576040517f08c379a000000000000000000000000000000000000000000000000000000000815260040161161290612418565b60405180910390fd5b50505050565b60008261162e8584611957565b1490509392505050565b606060405180602001604052806000815250905090565b60606000600161165e846119d3565b01905060008167ffffffffffffffff8111156116a3577f4e487b7100000000000000000000000000000000000000000000000000000000600052604160045260246000fd5b6040519080825280601f01601f1916602001820160405280156116d55781602001600182028036833780820191505090505b509050600082602001820190505b600115611768578080600190039150507f3031323334353637383961626364656600000000000000000000000000000000600a86061a8153600a8581611752577f4e487b7100000000000000000000000000000000000000000000000000000000600052601260045260246000fd5b049450600085141561176357611768565b6116e3565b819350505050919050565b60008073ffffffffffffffffffffffffffffffffffffffff16611795836112d7565b73ffffffffffffffffffffffffffffffffffffffff1614159050919050565b50505050565b50505050565b60006117e18473ffffffffffffffffffffffffffffffffffffffff16611c0a565b1561194a578373ffffffffffffffffffffffffffffffffffffffff1663150b7a0261180a610e87565b8786866040518563ffffffff1660e01b815260040161182c9493929190612354565b602060405180830381600087803b15801561184657600080fd5b505af192505050801561187757506040513d601f19601f82011682018060405250810190611874919061200f565b60015b6118fa573d80600081146118a7576040519150601f19603f3d011682016040523d82523d6000602084013e6118ac565b606091505b506000815114156118f2576040517f08c379a00000000000000000000000000000000000000000000000000000000081526004016118e990612418565b60405180910390fd5b805181602001fd5b63150b7a0260e01b7bffffffffffffffffffffffffffffffffffffffffffffffffffffffff1916817bffffffffffffffffffffffffffffffffffffffffffffffffffffffff19161491505061194f565b600190505b949350505050565b60008082905060005b84518110156119c8576119b3828683815181106119a6577f4e487b7100000000000000000000000000000000000000000000000000000000600052603260045260246000fd5b6020026020010151611c2d565b915080806119c090612799565b915050611960565b508091505092915050565b600080600090507a184f03e93ff9f4daa797ed6e38ed64bf6a1f0100000000000000008310611a57577a184f03e93ff9f4daa797ed6e38ed64bf6a1f0100000000000000008381611a4d577f4e487b7100000000000000000000000000000000000000000000000000000000600052601260045260246000fd5b0492506040810190505b6d04ee2d6d415b85acef81000000008310611aba576d04ee2d6d415b85acef81000000008381611ab0577f4e487b7100000000000000000000000000000000000000000000000000000000600052601260045260246000fd5b0492506020810190505b662386f26fc100008310611b0f57662386f26fc100008381611b05577f4e487b7100000000000000000000000000000000000000000000000000000000600052601260045260246000fd5b0492506010810190505b6305f5e1008310611b5e576305f5e1008381611b54577f4e487b7100000000000000000000000000000000000000000000000000000000600052601260045260246000fd5b0492506008810190505b6127108310611ba9576127108381611b9f577f4e487b7100000000000000000000000000000000000000000000000000000000600052601260045260246000fd5b0492506004810190505b60648310611bf25760648381611be8577f4e487b7100000000000000000000000000000000000000000000000000000000600052601260045260246000fd5b0492506002810190505b600a8310611c01576001810190505b80915050919050565b6000808273ffffffffffffffffffffffffffffffffffffffff163b119050919050565b6000818310611c4557611c408284611c58565b611c50565b611c4f8383611c58565b5b905092915050565b600082600052816020526040600020905092915050565b6000611c82611c7d846125d6565b6125b1565b90508083825260208201905082856020860282011115611ca157600080fd5b60005b85811015611cd15781611cb78882611d6d565b845260208401935060208301925050600181019050611ca4565b5050509392505050565b6000611cee611ce984612602565b6125b1565b905082815260208101848484011115611d0657600080fd5b611d118482856126f4565b509392505050565b600081359050611d2881612b73565b92915050565b600082601f830112611d3f57600080fd5b8135611d4f848260208601611c6f565b91505092915050565b600081359050611d6781612b8a565b92915050565b600081359050611d7c81612ba1565b92915050565b600081359050611d9181612bb8565b92915050565b600081519050611da681612bb8565b92915050565b600082601f830112611dbd57600080fd5b8135611dcd848260208601611cdb565b91505092915050565b600081359050611de581612bcf565b92915050565b600060208284031215611dfd57600080fd5b6000611e0b84828501611d19565b91505092915050565b60008060408385031215611e2757600080fd5b6000611e3585828601611d19565b9250506020611e4685828601611d19565b9150509250929050565b600080600060608486031215611e6557600080fd5b6000611e7386828701611d19565b9350506020611e8486828701611d19565b9250506040611e9586828701611dd6565b9150509250925092565b60008060008060808587031215611eb557600080fd5b6000611ec387828801611d19565b9450506020611ed487828801611d19565b9350506040611ee587828801611dd6565b925050606085013567ffffffffffffffff811115611f0257600080fd5b611f0e87828801611dac565b91505092959194509250565b60008060408385031215611f2d57600080fd5b6000611f3b85828601611d19565b9250506020611f4c85828601611d58565b9150509250929050565b60008060408385031215611f6957600080fd5b6000611f7785828601611d19565b9250506020611f8885828601611dd6565b9150509250929050565b60008060408385031215611fa557600080fd5b600083013567ffffffffffffffff811115611fbf57600080fd5b611fcb85828601611d2e565b9250506020611fdc85828601611d6d565b9150509250929050565b600060208284031215611ff857600080fd5b600061200684828501611d82565b91505092915050565b60006020828403121561202157600080fd5b600061202f84828501611d97565b91505092915050565b60006020828403121561204a57600080fd5b600061205884828501611dd6565b91505092915050565b6000806040838503121561207457600080fd5b600061208285828601611dd6565b925050602083013567ffffffffffffffff81111561209f57600080fd5b6120ab85828601611d2e565b9150509250929050565b6120be81612676565b82525050565b6120cd81612688565b82525050565b6120dc81612694565b82525050565b60006120ed82612633565b6120f78185612649565b9350612107818560208601612703565b6121108161286f565b840191505092915050565b60006121268261263e565b612130818561265a565b9350612140818560208601612703565b6121498161286f565b840191505092915050565b600061215f8261263e565b612169818561266b565b9350612179818560208601612703565b80840191505092915050565b6000612192602d8361265a565b915061219d82612880565b604082019050919050565b60006121b560328361265a565b91506121c0826128cf565b604082019050919050565b60006121d860268361265a565b91506121e38261291e565b604082019050919050565b60006121fb60258361265a565b91506122068261296d565b604082019050919050565b600061221e60248361265a565b9150612229826129bc565b604082019050919050565b600061224160198361265a565b915061224c82612a0b565b602082019050919050565b600061226460298361265a565b915061226f82612a34565b604082019050919050565b600061228760208361265a565b915061229282612a83565b602082019050919050565b60006122aa60188361265a565b91506122b582612aac565b602082019050919050565b60006122cd60218361265a565b91506122d882612ad5565b604082019050919050565b60006122f0603d8361265a565b91506122fb82612b24565b604082019050919050565b61230f816126ea565b82525050565b60006123218285612154565b915061232d8284612154565b91508190509392505050565b600060208201905061234e60008301846120b5565b92915050565b600060808201905061236960008301876120b5565b61237660208301866120b5565b6123836040830185612306565b818103606083015261239581846120e2565b905095945050505050565b60006020820190506123b560008301846120c4565b92915050565b60006020820190506123d060008301846120d3565b92915050565b600060208201905081810360008301526123f0818461211b565b905092915050565b6000602082019050818103600083015261241181612185565b9050919050565b60006020820190508181036000830152612431816121a8565b9050919050565b60006020820190508181036000830152612451816121cb565b9050919050565b60006020820190508181036000830152612471816121ee565b9050919050565b6000602082019050818103600083015261249181612211565b9050919050565b600060208201905081810360008301526124b181612234565b9050919050565b600060208201905081810360008301526124d181612257565b9050919050565b600060208201905081810360008301526124f18161227a565b9050919050565b600060208201905081810360008301526125118161229d565b9050919050565b60006020820190508181036000830152612531816122c0565b9050919050565b60006020820190508181036000830152612551816122e3565b9050919050565b600060208201905061256d6000830184612306565b92915050565b60006060820190506125886000830186612306565b818103602083015261259a818561211b565b90506125a96040830184612306565b949350505050565b60006125bb6125cc565b90506125c78282612768565b919050565b6000604051905090565b600067ffffffffffffffff8211156125f1576125f0612840565b5b602082029050602081019050919050565b600067ffffffffffffffff82111561261d5761261c612840565b5b6126268261286f565b9050602081019050919050565b600081519050919050565b600081519050919050565b600082825260208201905092915050565b600082825260208201905092915050565b600081905092915050565b6000612681826126ca565b9050919050565b60008115159050919050565b6000819050919050565b60007fffffffff0000000000000000000000000000000000000000000000000000000082169050919050565b600073ffffffffffffffffffffffffffffffffffffffff82169050919050565b6000819050919050565b82818337600083830152505050565b60005b83811015612721578082015181840152602081019050612706565b83811115612730576000848401525b50505050565b6000600282049050600182168061274e57607f821691505b6020821081141561276257612761612811565b5b50919050565b6127718261286f565b810181811067ffffffffffffffff821117156127905761278f612840565b5b80604052505050565b60006127a4826126ea565b91507fffffffffffffffffffffffffffffffffffffffffffffffffffffffffffffffff8214156127d7576127d66127e2565b5b600182019050919050565b7f4e487b7100000000000000000000000000000000000000000000000000000000600052601160045260246000fd5b7f4e487b7100000000000000000000000000000000000000000000000000000000600052602260045260246000fd5b7f4e487b7100000000000000000000000000000000000000000000000000000000600052604160045260246000fd5b6000601f19601f8301169050919050565b7f4552433732313a2063616c6c6572206973206e6f7420746f6b656e206f776e6560008201527f72206f7220617070726f76656400000000000000000000000000000000000000602082015250565b7f4552433732313a207472616e7366657220746f206e6f6e20455243373231526560008201527f63656976657220696d706c656d656e7465720000000000000000000000000000602082015250565b7f4f776e61626c653a206e6577206f776e657220697320746865207a65726f206160008201527f6464726573730000000000000000000000000000000000000000000000000000602082015250565b7f4552433732313a207472616e736665722066726f6d20696e636f72726563742060008201527f6f776e6572000000000000000000000000000000000000000000000000000000602082015250565b7f4552433732313a207472616e7366657220746f20746865207a65726f2061646460008201527f7265737300000000000000000000000000000000000000000000000000000000602082015250565b7f4552433732313a20617070726f766520746f2063616c6c657200000000000000600082015250565b7f4552433732313a2061646472657373207a65726f206973206e6f74206120766160008201527f6c6964206f776e65720000000000000000000000000000000000000000000000602082015250565b7f4f776e61626c653a2063616c6c6572206973206e6f7420746865206f776e6572600082015250565b7f4552433732313a20696e76616c696420746f6b656e2049440000000000000000600082015250565b7f4552433732313a20617070726f76616c20746f2063757272656e74206f776e6560008201527f7200000000000000000000000000000000000000000000000000000000000000602082015250565b7f4552433732313a20617070726f76652063616c6c6572206973206e6f7420746f60008201527f6b656e206f776e6572206f7220617070726f76656420666f7220616c6c000000602082015250565b612b7c81612676565b8114612b8757600080fd5b50565b612b9381612688565b8114612b9e57600080fd5b50565b612baa81612694565b8114612bb557600080fd5b50565b612bc18161269e565b8114612bcc57600080fd5b50565b612bd8816126ea565b8114612be357600080fd5b5056fea26469706673582212206890bf6686d2103d4ed169835822f0d1a00e6924e970fe4a1de137eb2227a86764736f6c63430008010033",
  "immutableReferences": {},
  "source": "// SPDX-License-Identifier: UNLICENSED\npragma solidity >=0.4.22 <=0.8.1;\n\nimport \"@openzeppelin/contracts/token/ERC721/ERC721.sol\";\nimport \"@openzeppelin/contracts/access/Ownable.sol\";\nimport \"@openzeppelin/contracts/utils/Counters.sol\";\nimport \"@openzeppelin/contracts/utils/cryptography/MerkleProof.sol\";\n\ncontract Election is ERC721, Ownable {\n\n    bytes32 public root;\n\n    struct Candidate {\n        uint candidateId;\n        string candidateName;\n        uint candidateVotes;\n    }\n\n    mapping(uint => Candidate) public candidates;\n    mapping(address => bool) public voters;\n\n\n    uint public candidateCount;\n\n    constructor(bytes32 _root) ERC721(\"MyToken\", \"MTK\") public {\n        root = _root;\n        addCandidate(\"Joe Biden\");\n        addCandidate(\"Donald Trump\");\n        addCandidate(\"Barrack Obama\");\n        addCandidate(\"George Bush\");\n\n    }\n\n    function addCandidate(string memory _candidateName) private {\n        candidateCount++;\n        candidates[candidateCount] = Candidate(candidateCount, _candidateName, 0);\n    }\n\n    function makeVote(uint _candidateId, bytes32[] memory proof) public {\n        require(!voters[msg.sender]);\n\n        // require a valid candidate\n        require(_candidateId > 0 && _candidateId <= candidateCount);\n\n//        require(isValid(proof, keccak256(abi.encodePacked(msg.sender))), \"Invalid Address\");\n\n\n    candidates[_candidateId].candidateVotes++;\n        voters[msg.sender] = true;\n\n        emit voteEvent(_candidateId);\n    }\n\n    function isValid(bytes32[] memory proof, bytes32 leaf) public view returns (bool) {\n        return MerkleProof.verify(proof, root, leaf);\n    }\n\n\n    event voteEvent(uint indexed _candidateId);\n}\n",
  "sourcePath": "/Users/sumedh/Projects/CS546/project/CS546Project/src/contracts/Election.sol",
  "compiler": {
    "name": "solc",
    "version": "0.8.1+commit.df193b15.Emscripten.clang"
  },
  "schemaVersion": "3.4.13",
  "updatedAt": "2023-04-11T21:53:27.311Z",
  "networkType": "ethereum",
  "devdoc": {
    "kind": "dev",
    "methods": {
      "approve(address,uint256)": {
        "details": "See {IERC721-approve}."
      },
      "balanceOf(address)": {
        "details": "See {IERC721-balanceOf}."
      },
      "getApproved(uint256)": {
        "details": "See {IERC721-getApproved}."
      },
      "isApprovedForAll(address,address)": {
        "details": "See {IERC721-isApprovedForAll}."
      },
      "name()": {
        "details": "See {IERC721Metadata-name}."
      },
      "owner()": {
        "details": "Returns the address of the current owner."
      },
      "ownerOf(uint256)": {
        "details": "See {IERC721-ownerOf}."
      },
      "renounceOwnership()": {
        "details": "Leaves the contract without owner. It will not be possible to call `onlyOwner` functions anymore. Can only be called by the current owner. NOTE: Renouncing ownership will leave the contract without an owner, thereby removing any functionality that is only available to the owner."
      },
      "safeTransferFrom(address,address,uint256)": {
        "details": "See {IERC721-safeTransferFrom}."
      },
      "safeTransferFrom(address,address,uint256,bytes)": {
        "details": "See {IERC721-safeTransferFrom}."
      },
      "setApprovalForAll(address,bool)": {
        "details": "See {IERC721-setApprovalForAll}."
      },
      "supportsInterface(bytes4)": {
        "details": "See {IERC165-supportsInterface}."
      },
      "symbol()": {
        "details": "See {IERC721Metadata-symbol}."
      },
      "tokenURI(uint256)": {
        "details": "See {IERC721Metadata-tokenURI}."
      },
      "transferFrom(address,address,uint256)": {
        "details": "See {IERC721-transferFrom}."
      },
      "transferOwnership(address)": {
        "details": "Transfers ownership of the contract to a new account (`newOwner`). Can only be called by the current owner."
      }
    },
    "version": 1
  },
  "userdoc": {
    "kind": "user",
    "methods": {},
    "version": 1
  }
}